{
  "_format": "hh-sol-artifact-1",
  "contractName": "PipeleSBT",
  "sourceName": "contracts/PipeleSBT.sol",
  "abi": [
    {
      "inputs": [
        {
          "internalType": "string",
          "name": "pipeleUri",
          "type": "string"
        }
      ],
      "stateMutability": "nonpayable",
      "type": "constructor"
    },
    {
      "anonymous": false,
      "inputs": [
        {
          "indexed": true,
          "internalType": "address",
          "name": "account",
          "type": "address"
        },
        {
          "indexed": true,
          "internalType": "address",
          "name": "operator",
          "type": "address"
        },
        {
          "indexed": false,
          "internalType": "bool",
          "name": "approved",
          "type": "bool"
        }
      ],
      "name": "ApprovalForAll",
      "type": "event"
    },
    {
      "anonymous": false,
      "inputs": [
        {
          "indexed": false,
          "internalType": "address",
          "name": "to",
          "type": "address"
        },
        {
          "indexed": false,
          "internalType": "uint256",
          "name": "tokenId",
          "type": "uint256"
        },
        {
          "indexed": false,
          "internalType": "uint256",
          "name": "ownershipType",
          "type": "uint256"
        },
        {
          "indexed": false,
          "internalType": "string",
          "name": "fileId",
          "type": "string"
        }
      ],
      "name": "Attest",
      "type": "event"
    },
    {
      "anonymous": false,
      "inputs": [
        {
          "indexed": false,
          "internalType": "address",
          "name": "to",
          "type": "address"
        },
        {
          "indexed": false,
          "internalType": "uint256",
          "name": "tokenId",
          "type": "uint256"
        }
      ],
      "name": "Revoke",
      "type": "event"
    },
    {
      "anonymous": false,
      "inputs": [
        {
          "indexed": true,
          "internalType": "address",
          "name": "operator",
          "type": "address"
        },
        {
          "indexed": true,
          "internalType": "address",
          "name": "from",
          "type": "address"
        },
        {
          "indexed": true,
          "internalType": "address",
          "name": "to",
          "type": "address"
        },
        {
          "indexed": false,
          "internalType": "uint256[]",
          "name": "ids",
          "type": "uint256[]"
        },
        {
          "indexed": false,
          "internalType": "uint256[]",
          "name": "values",
          "type": "uint256[]"
        }
      ],
      "name": "TransferBatch",
      "type": "event"
    },
    {
      "anonymous": false,
      "inputs": [
        {
          "indexed": true,
          "internalType": "address",
          "name": "operator",
          "type": "address"
        },
        {
          "indexed": true,
          "internalType": "address",
          "name": "from",
          "type": "address"
        },
        {
          "indexed": true,
          "internalType": "address",
          "name": "to",
          "type": "address"
        },
        {
          "indexed": false,
          "internalType": "uint256",
          "name": "id",
          "type": "uint256"
        },
        {
          "indexed": false,
          "internalType": "uint256",
          "name": "value",
          "type": "uint256"
        }
      ],
      "name": "TransferSingle",
      "type": "event"
    },
    {
      "anonymous": false,
      "inputs": [
        {
          "indexed": false,
          "internalType": "string",
          "name": "value",
          "type": "string"
        },
        {
          "indexed": true,
          "internalType": "uint256",
          "name": "id",
          "type": "uint256"
        }
      ],
      "name": "URI",
      "type": "event"
    },
    {
      "inputs": [
        {
          "internalType": "address",
          "name": "account",
          "type": "address"
        },
        {
          "internalType": "uint256",
          "name": "id",
          "type": "uint256"
        }
      ],
      "name": "balanceOf",
      "outputs": [
        {
          "internalType": "uint256",
          "name": "",
          "type": "uint256"
        }
      ],
      "stateMutability": "view",
      "type": "function"
    },
    {
      "inputs": [
        {
          "internalType": "address[]",
          "name": "accounts",
          "type": "address[]"
        },
        {
          "internalType": "uint256[]",
          "name": "ids",
          "type": "uint256[]"
        }
      ],
      "name": "balanceOfBatch",
      "outputs": [
        {
          "internalType": "uint256[]",
          "name": "",
          "type": "uint256[]"
        }
      ],
      "stateMutability": "view",
      "type": "function"
    },
    {
      "inputs": [
        {
          "internalType": "uint256",
          "name": "id",
          "type": "uint256"
        }
      ],
      "name": "burn",
      "outputs": [],
      "stateMutability": "nonpayable",
      "type": "function"
    },
    {
      "inputs": [
        {
          "internalType": "string",
          "name": "fileId",
          "type": "string"
        }
      ],
      "name": "getIdofFileId",
      "outputs": [
        {
          "internalType": "uint256",
          "name": "",
          "type": "uint256"
        }
      ],
      "stateMutability": "view",
      "type": "function"
    },
    {
      "inputs": [
        {
          "internalType": "uint256",
          "name": "",
          "type": "uint256"
        }
      ],
      "name": "idtoinfo",
      "outputs": [
        {
          "internalType": "address",
          "name": "owner",
          "type": "address"
        },
        {
          "internalType": "string",
          "name": "fileId",
          "type": "string"
        }
      ],
      "stateMutability": "view",
      "type": "function"
    },
    {
      "inputs": [
        {
          "internalType": "address",
          "name": "account",
          "type": "address"
        },
        {
          "internalType": "address",
          "name": "operator",
          "type": "address"
        }
      ],
      "name": "isApprovedForAll",
      "outputs": [
        {
          "internalType": "bool",
          "name": "",
          "type": "bool"
        }
      ],
      "stateMutability": "view",
      "type": "function"
    },
    {
      "inputs": [
        {
          "internalType": "string",
          "name": "fileId",
          "type": "string"
        }
      ],
      "name": "mint",
      "outputs": [],
      "stateMutability": "nonpayable",
      "type": "function"
    },
    {
      "inputs": [
        {
          "internalType": "address",
          "name": "account",
          "type": "address"
        },
        {
          "internalType": "uint256",
          "name": "id",
          "type": "uint256"
        }
      ],
      "name": "revoke",
      "outputs": [],
      "stateMutability": "nonpayable",
      "type": "function"
    },
    {
      "inputs": [
        {
          "internalType": "address",
          "name": "from",
          "type": "address"
        },
        {
          "internalType": "address",
          "name": "to",
          "type": "address"
        },
        {
          "internalType": "uint256[]",
          "name": "ids",
          "type": "uint256[]"
        },
        {
          "internalType": "uint256[]",
          "name": "amounts",
          "type": "uint256[]"
        },
        {
          "internalType": "bytes",
          "name": "data",
          "type": "bytes"
        }
      ],
      "name": "safeBatchTransferFrom",
      "outputs": [],
      "stateMutability": "nonpayable",
      "type": "function"
    },
    {
      "inputs": [
        {
          "internalType": "address",
          "name": "from",
          "type": "address"
        },
        {
          "internalType": "address",
          "name": "to",
          "type": "address"
        },
        {
          "internalType": "uint256",
          "name": "id",
          "type": "uint256"
        },
        {
          "internalType": "uint256",
          "name": "amount",
          "type": "uint256"
        },
        {
          "internalType": "bytes",
          "name": "data",
          "type": "bytes"
        }
      ],
      "name": "safeTransferFrom",
      "outputs": [],
      "stateMutability": "nonpayable",
      "type": "function"
    },
    {
      "inputs": [
        {
          "internalType": "address",
          "name": "operator",
          "type": "address"
        },
        {
          "internalType": "bool",
          "name": "approved",
          "type": "bool"
        }
      ],
      "name": "setApprovalForAll",
      "outputs": [],
      "stateMutability": "nonpayable",
      "type": "function"
    },
    {
      "inputs": [
        {
          "internalType": "address",
          "name": "account",
          "type": "address"
        },
        {
          "internalType": "uint256",
          "name": "id",
          "type": "uint256"
        }
      ],
      "name": "share",
      "outputs": [],
      "stateMutability": "nonpayable",
      "type": "function"
    },
    {
      "inputs": [
        {
          "internalType": "bytes4",
          "name": "interfaceId",
          "type": "bytes4"
        }
      ],
      "name": "supportsInterface",
      "outputs": [
        {
          "internalType": "bool",
          "name": "",
          "type": "bool"
        }
      ],
      "stateMutability": "view",
      "type": "function"
    },
    {
      "inputs": [],
      "name": "tokensIssued",
      "outputs": [
        {
          "internalType": "uint256",
          "name": "",
          "type": "uint256"
        }
      ],
      "stateMutability": "view",
      "type": "function"
    },
    {
      "inputs": [
        {
          "internalType": "uint256",
          "name": "",
          "type": "uint256"
        }
      ],
      "name": "uri",
      "outputs": [
        {
          "internalType": "string",
          "name": "",
          "type": "string"
        }
      ],
      "stateMutability": "view",
      "type": "function"
    }
  ],
  "bytecode": "0x60806040523480156200001157600080fd5b50604051620020b0380380620020b083398101604081905262000034916200013d565b8062000040816200005f565b506200005860036200007860201b620009921760201c565b5062000256565b80516200007490600290602084019062000081565b5050565b80546001019055565b8280546200008f9062000219565b90600052602060002090601f016020900481019282620000b35760008555620000fe565b82601f10620000ce57805160ff1916838001178555620000fe565b82800160010185558215620000fe579182015b82811115620000fe578251825591602001919060010190620000e1565b506200010c92915062000110565b5090565b5b808211156200010c576000815560010162000111565b634e487b7160e01b600052604160045260246000fd5b600060208083850312156200015157600080fd5b82516001600160401b03808211156200016957600080fd5b818501915085601f8301126200017e57600080fd5b81518181111562000193576200019362000127565b604051601f8201601f19908116603f01168101908382118183101715620001be57620001be62000127565b816040528281528886848701011115620001d757600080fd5b600093505b82841015620001fb5784840186015181850187015292850192620001dc565b828411156200020d5760008684830101525b98975050505050505050565b600181811c908216806200022e57607f821691505b602082108114156200025057634e487b7160e01b600052602260045260246000fd5b50919050565b611e4a80620002666000396000f3fe608060405234801561001057600080fd5b50600436106100f45760003560e01c8063847bf5f111610097578063df09790d11610066578063df09790d1461020c578063e985e9c51461021f578063eac449d91461025b578063f242432a1461026e57600080fd5b8063847bf5f1146101b2578063a22cb465146101d3578063d85d3d27146101e6578063ded6338b146101f957600080fd5b80632eb2c2d6116100d35780632eb2c2d61461016257806342966c68146101775780634e1273f41461018a5780637c48bbda146101aa57600080fd5b8062fdd58e146100f957806301ffc9a71461011f5780630e89341c14610142575b600080fd5b61010c610107366004611429565b610281565b6040519081526020015b60405180910390f35b61013261012d366004611469565b610317565b6040519015158152602001610116565b61015561015036600461148d565b610369565b6040516101169190611502565b61017561017036600461166b565b6103fd565b005b61017561018536600461148d565b610449565b61019d610198366004611715565b6104dd565b604051610116919061181b565b61010c610607565b6101c56101c036600461148d565b610623565b60405161011692919061182e565b6101756101e136600461185a565b6106d2565b6101756101f4366004611896565b6106e1565b610175610207366004611429565b610790565b61010c61021a366004611896565b61083a565b61013261022d3660046118df565b6001600160a01b03918216600090815260016020908152604080832093909416825291909152205460ff1690565b610175610269366004611429565b6108cc565b61017561027c366004611912565b61094d565b60006001600160a01b0383166102f15760405162461bcd60e51b815260206004820152602a60248201527f455243313135353a2061646472657373207a65726f206973206e6f742061207660448201526930b634b21037bbb732b960b11b60648201526084015b60405180910390fd5b506000908152602081815260408083206001600160a01b03949094168352929052205490565b60006001600160e01b03198216636cdb3d1360e11b148061034857506001600160e01b031982166303a24d0760e21b145b8061036357506301ffc9a760e01b6001600160e01b03198316145b92915050565b60606002805461037890611977565b80601f01602080910402602001604051908101604052809291908181526020018280546103a490611977565b80156103f15780601f106103c6576101008083540402835291602001916103f1565b820191906000526020600020905b8154815290600101906020018083116103d457829003601f168201915b50505050509050919050565b6001600160a01b0385163314806104195750610419853361022d565b6104355760405162461bcd60e51b81526004016102e8906119b2565b610442858585858561099b565b5050505050565b61045533826001610b86565b6000818152600460205260409020546001600160a01b03163314156104a157600081815260046020526040812080546001600160a01b03191681559061049e6001830182611337565b50505b60408051338152602081018390527fec9ab91322523c899ede7830ec9bfc992b5981cdcc27b91162fb23de5791117b910160405180910390a150565b606081518351146105425760405162461bcd60e51b815260206004820152602960248201527f455243313135353a206163636f756e747320616e6420696473206c656e677468604482015268040dad2e6dac2e8c6d60bb1b60648201526084016102e8565b6000835167ffffffffffffffff81111561055e5761055e611515565b604051908082528060200260200182016040528015610587578160200160208202803683370190505b50905060005b84518110156105ff576105d28582815181106105ab576105ab611a01565b60200260200101518583815181106105c5576105c5611a01565b6020026020010151610281565b8282815181106105e4576105e4611a01565b60209081029190910101526105f881611a2d565b905061058d565b509392505050565b6000600161061460035490565b61061e9190611a48565b905090565b600460205260009081526040902080546001820180546001600160a01b03909216929161064f90611977565b80601f016020809104026020016040519081016040528092919081815260200182805461067b90611977565b80156106c85780601f1061069d576101008083540402835291602001916106c8565b820191906000526020600020905b8154815290600101906020018083116106ab57829003601f168201915b5050505050905082565b6106dd338383610d1b565b5050565b60006106ec60035490565b905061070a3382600160405180602001604052806000815250610dfc565b600081815260046020908152604090912080546001600160a01b03191633178155835161073f92600190920191850190611374565b5061074e600380546001019055565b7f5a74b0f009590cc3030608d8c3170e14a9d89a876db582f002197c92de0bc22333826001856040516107849493929190611a5f565b60405180910390a15050565b6000818152600460205260409020546001600160a01b031633146107c65760405162461bcd60e51b81526004016102e890611a96565b6107e28282600160405180602001604052806000815250610dfc565b604080516001600160a01b03841681526020810183905260009181018290526080606082018190528101919091527f5a74b0f009590cc3030608d8c3170e14a9d89a876db582f002197c92de0bc2239060a001610784565b600060015b6003548110156108c3578260405160200161085a9190611ad9565b60408051601f19818403018152828252805160209182012060008581526004835292909220919261088f926001019101611af5565b6040516020818303038152906040528051906020012014156108b15792915050565b806108bb81611a2d565b91505061083f565b50600092915050565b6000818152600460205260409020546001600160a01b031633146109025760405162461bcd60e51b81526004016102e890611a96565b61090e82826001610b86565b604080516001600160a01b0384168152602081018390527fec9ab91322523c899ede7830ec9bfc992b5981cdcc27b91162fb23de5791117b9101610784565b6001600160a01b0385163314806109695750610969853361022d565b6109855760405162461bcd60e51b81526004016102e8906119b2565b6104428585858585610f16565b80546001019055565b81518351146109fd5760405162461bcd60e51b815260206004820152602860248201527f455243313135353a2069647320616e6420616d6f756e7473206c656e677468206044820152670dad2e6dac2e8c6d60c31b60648201526084016102e8565b6001600160a01b038416610a235760405162461bcd60e51b81526004016102e890611b91565b33610a3281878787878761104e565b60005b8451811015610b18576000858281518110610a5257610a52611a01565b602002602001015190506000858381518110610a7057610a70611a01565b602090810291909101810151600084815280835260408082206001600160a01b038e168352909352919091205490915081811015610ac05760405162461bcd60e51b81526004016102e890611bd6565b6000838152602081815260408083206001600160a01b038e8116855292528083208585039055908b16825281208054849290610afd908490611c20565b9250508190555050505080610b1190611a2d565b9050610a35565b50846001600160a01b0316866001600160a01b0316826001600160a01b03167f4a39dc06d4c0dbc64b70af90fd698a233a518aa5d07e595d983b8c0526c8f7fb8787604051610b68929190611c38565b60405180910390a4610b7e8187878787876110b7565b505050505050565b6001600160a01b038316610be85760405162461bcd60e51b815260206004820152602360248201527f455243313135353a206275726e2066726f6d20746865207a65726f206164647260448201526265737360e81b60648201526084016102e8565b336000610bf484611222565b90506000610c0184611222565b9050610c218387600085856040518060200160405280600081525061104e565b6000858152602081815260408083206001600160a01b038a16845290915290205484811015610c9e5760405162461bcd60e51b8152602060048201526024808201527f455243313135353a206275726e20616d6f756e7420657863656564732062616c604482015263616e636560e01b60648201526084016102e8565b6000868152602081815260408083206001600160a01b038b81168086529184528285208a8703905582518b81529384018a90529092908816917fc3d58168c5ae7397731d063d5bbf3d657854427343f4c083240f7aacaa2d0f62910160405180910390a46040805160208101909152600090525b50505050505050565b816001600160a01b0316836001600160a01b03161415610d8f5760405162461bcd60e51b815260206004820152602960248201527f455243313135353a2073657474696e6720617070726f76616c20737461747573604482015268103337b91039b2b63360b91b60648201526084016102e8565b6001600160a01b03838116600081815260016020908152604080832094871680845294825291829020805460ff191686151590811790915591519182527f17307eab39ab6107e8899845ad3d59bd9653f200f220920489ca2b5937696c31910160405180910390a3505050565b6001600160a01b038416610e5c5760405162461bcd60e51b815260206004820152602160248201527f455243313135353a206d696e7420746f20746865207a65726f206164647265736044820152607360f81b60648201526084016102e8565b336000610e6885611222565b90506000610e7585611222565b9050610e868360008985858961104e565b6000868152602081815260408083206001600160a01b038b16845290915281208054879290610eb6908490611c20565b909155505060408051878152602081018790526001600160a01b03808a1692600092918716917fc3d58168c5ae7397731d063d5bbf3d657854427343f4c083240f7aacaa2d0f62910160405180910390a4610d128360008989898961126d565b6001600160a01b038416610f3c5760405162461bcd60e51b81526004016102e890611b91565b336000610f4885611222565b90506000610f5585611222565b9050610f6583898985858961104e565b6000868152602081815260408083206001600160a01b038c16845290915290205485811015610fa65760405162461bcd60e51b81526004016102e890611bd6565b6000878152602081815260408083206001600160a01b038d8116855292528083208985039055908a16825281208054889290610fe3908490611c20565b909155505060408051888152602081018890526001600160a01b03808b16928c821692918816917fc3d58168c5ae7397731d063d5bbf3d657854427343f4c083240f7aacaa2d0f62910160405180910390a4611043848a8a8a8a8a61126d565b505050505050505050565b6001600160a01b038516158061106b57506001600160a01b038416155b610b7e5760405162461bcd60e51b815260206004820152601d60248201527f4e6f7420616c6c6f77656420746f207472616e7366657220746f6b656e00000060448201526064016102e8565b6001600160a01b0384163b15610b7e5760405163bc197c8160e01b81526001600160a01b0385169063bc197c81906110fb9089908990889088908890600401611c66565b602060405180830381600087803b15801561111557600080fd5b505af1925050508015611145575060408051601f3d908101601f1916820190925261114291810190611cc4565b60015b6111f257611151611ce1565b806308c379a0141561118b5750611166611cfd565b80611171575061118d565b8060405162461bcd60e51b81526004016102e89190611502565b505b60405162461bcd60e51b815260206004820152603460248201527f455243313135353a207472616e7366657220746f206e6f6e20455243313135356044820152732932b1b2b4bb32b91034b6b83632b6b2b73a32b960611b60648201526084016102e8565b6001600160e01b0319811663bc197c8160e01b14610d125760405162461bcd60e51b81526004016102e890611d87565b6040805160018082528183019092526060916000919060208083019080368337019050509050828160008151811061125c5761125c611a01565b602090810291909101015292915050565b6001600160a01b0384163b15610b7e5760405163f23a6e6160e01b81526001600160a01b0385169063f23a6e61906112b19089908990889088908890600401611dcf565b602060405180830381600087803b1580156112cb57600080fd5b505af19250505080156112fb575060408051601f3d908101601f191682019092526112f891810190611cc4565b60015b61130757611151611ce1565b6001600160e01b0319811663f23a6e6160e01b14610d125760405162461bcd60e51b81526004016102e890611d87565b50805461134390611977565b6000825580601f10611353575050565b601f01602090049060005260206000209081019061137191906113f8565b50565b82805461138090611977565b90600052602060002090601f0160209004810192826113a257600085556113e8565b82601f106113bb57805160ff19168380011785556113e8565b828001600101855582156113e8579182015b828111156113e85782518255916020019190600101906113cd565b506113f49291506113f8565b5090565b5b808211156113f457600081556001016113f9565b80356001600160a01b038116811461142457600080fd5b919050565b6000806040838503121561143c57600080fd5b6114458361140d565b946020939093013593505050565b6001600160e01b03198116811461137157600080fd5b60006020828403121561147b57600080fd5b813561148681611453565b9392505050565b60006020828403121561149f57600080fd5b5035919050565b60005b838110156114c15781810151838201526020016114a9565b838111156114d0576000848401525b50505050565b600081518084526114ee8160208601602086016114a6565b601f01601f19169290920160200192915050565b60208152600061148660208301846114d6565b634e487b7160e01b600052604160045260246000fd5b601f8201601f1916810167ffffffffffffffff8111828210171561155157611551611515565b6040525050565b600067ffffffffffffffff82111561157257611572611515565b5060051b60200190565b600082601f83011261158d57600080fd5b8135602061159a82611558565b6040516115a7828261152b565b83815260059390931b85018201928281019150868411156115c757600080fd5b8286015b848110156115e257803583529183019183016115cb565b509695505050505050565b600067ffffffffffffffff83111561160757611607611515565b60405161161e601f8501601f19166020018261152b565b80915083815284848401111561163357600080fd5b83836020830137600060208583010152509392505050565b600082601f83011261165c57600080fd5b611486838335602085016115ed565b600080600080600060a0868803121561168357600080fd5b61168c8661140d565b945061169a6020870161140d565b9350604086013567ffffffffffffffff808211156116b757600080fd5b6116c389838a0161157c565b945060608801359150808211156116d957600080fd5b6116e589838a0161157c565b935060808801359150808211156116fb57600080fd5b506117088882890161164b565b9150509295509295909350565b6000806040838503121561172857600080fd5b823567ffffffffffffffff8082111561174057600080fd5b818501915085601f83011261175457600080fd5b8135602061176182611558565b60405161176e828261152b565b83815260059390931b850182019282810191508984111561178e57600080fd5b948201945b838610156117b3576117a48661140d565b82529482019490820190611793565b965050860135925050808211156117c957600080fd5b506117d68582860161157c565b9150509250929050565b600081518084526020808501945080840160005b83811015611810578151875295820195908201906001016117f4565b509495945050505050565b60208152600061148660208301846117e0565b6001600160a01b0383168152604060208201819052600090611852908301846114d6565b949350505050565b6000806040838503121561186d57600080fd5b6118768361140d565b91506020830135801515811461188b57600080fd5b809150509250929050565b6000602082840312156118a857600080fd5b813567ffffffffffffffff8111156118bf57600080fd5b8201601f810184136118d057600080fd5b611852848235602084016115ed565b600080604083850312156118f257600080fd5b6118fb8361140d565b91506119096020840161140d565b90509250929050565b600080600080600060a0868803121561192a57600080fd5b6119338661140d565b94506119416020870161140d565b93506040860135925060608601359150608086013567ffffffffffffffff81111561196b57600080fd5b6117088882890161164b565b600181811c9082168061198b57607f821691505b602082108114156119ac57634e487b7160e01b600052602260045260246000fd5b50919050565b6020808252602f908201527f455243313135353a2063616c6c6572206973206e6f7420746f6b656e206f776e60408201526e195c881b9bdc88185c1c1c9bdd9959608a1b606082015260800190565b634e487b7160e01b600052603260045260246000fd5b634e487b7160e01b600052601160045260246000fd5b6000600019821415611a4157611a41611a17565b5060010190565b600082821015611a5a57611a5a611a17565b500390565b60018060a01b0385168152836020820152826040820152608060608201526000611a8c60808301846114d6565b9695505050505050565b60208082526023908201527f596f7520617265206e6f7420746865206f776e6572206f66207468697320746f60408201526235b2b760e91b606082015260800190565b60008251611aeb8184602087016114a6565b9190910192915050565b600080835481600182811c915080831680611b1157607f831692505b6020808410821415611b3157634e487b7160e01b86526022600452602486fd5b818015611b455760018114611b5657611b83565b60ff19861689528489019650611b83565b60008a81526020902060005b86811015611b7b5781548b820152908501908301611b62565b505084890196505b509498975050505050505050565b60208082526025908201527f455243313135353a207472616e7366657220746f20746865207a65726f206164604082015264647265737360d81b606082015260800190565b6020808252602a908201527f455243313135353a20696e73756666696369656e742062616c616e636520666f60408201526939103a3930b739b332b960b11b606082015260800190565b60008219821115611c3357611c33611a17565b500190565b604081526000611c4b60408301856117e0565b8281036020840152611c5d81856117e0565b95945050505050565b6001600160a01b0386811682528516602082015260a060408201819052600090611c92908301866117e0565b8281036060840152611ca481866117e0565b90508281036080840152611cb881856114d6565b98975050505050505050565b600060208284031215611cd657600080fd5b815161148681611453565b600060033d1115611cfa5760046000803e5060005160e01c5b90565b600060443d1015611d0b5790565b6040516003193d81016004833e81513d67ffffffffffffffff8160248401118184111715611d3b57505050505090565b8285019150815181811115611d535750505050505090565b843d8701016020828501011115611d6d5750505050505090565b611d7c6020828601018761152b565b509095945050505050565b60208082526028908201527f455243313135353a204552433131353552656365697665722072656a656374656040820152676420746f6b656e7360c01b606082015260800190565b6001600160a01b03868116825285166020820152604081018490526060810183905260a060808201819052600090611e09908301846114d6565b97965050505050505056fea2646970667358221220d0af397b5e7aebbee4f30ba75961e476462218d6c4e815f5e4771ae5b3447e8f64736f6c63430008090033",
  "linkReferences": {},
  "deployedLinkReferences": {}
}