{
  "_format": "hh-sol-artifact-1",
  "contractName": "PipeleSBT",
  "sourceName": "contracts/PipeleSBT.sol",
  "abi": [
    {
      "inputs": [],
      "stateMutability": "nonpayable",
      "type": "constructor"
    },
    {
      "anonymous": false,
      "inputs": [
        {
          "indexed": true,
          "internalType": "address",
          "name": "account",
          "type": "address"
        },
        {
          "indexed": true,
          "internalType": "address",
          "name": "operator",
          "type": "address"
        },
        {
          "indexed": false,
          "internalType": "bool",
          "name": "approved",
          "type": "bool"
        }
      ],
      "name": "ApprovalForAll",
      "type": "event"
    },
    {
      "anonymous": false,
      "inputs": [
        {
          "indexed": false,
          "internalType": "address",
          "name": "to",
          "type": "address"
        },
        {
          "indexed": false,
          "internalType": "uint256",
          "name": "tokenId",
          "type": "uint256"
        },
        {
          "indexed": false,
          "internalType": "uint256",
          "name": "ownershipType",
          "type": "uint256"
        },
        {
          "indexed": false,
          "internalType": "string",
          "name": "cid",
          "type": "string"
        }
      ],
      "name": "Attest",
      "type": "event"
    },
    {
      "anonymous": false,
      "inputs": [
        {
          "indexed": false,
          "internalType": "address",
          "name": "to",
          "type": "address"
        },
        {
          "indexed": false,
          "internalType": "uint256",
          "name": "tokenId",
          "type": "uint256"
        }
      ],
      "name": "Revoke",
      "type": "event"
    },
    {
      "anonymous": false,
      "inputs": [
        {
          "indexed": true,
          "internalType": "address",
          "name": "operator",
          "type": "address"
        },
        {
          "indexed": true,
          "internalType": "address",
          "name": "from",
          "type": "address"
        },
        {
          "indexed": true,
          "internalType": "address",
          "name": "to",
          "type": "address"
        },
        {
          "indexed": false,
          "internalType": "uint256[]",
          "name": "ids",
          "type": "uint256[]"
        },
        {
          "indexed": false,
          "internalType": "uint256[]",
          "name": "values",
          "type": "uint256[]"
        }
      ],
      "name": "TransferBatch",
      "type": "event"
    },
    {
      "anonymous": false,
      "inputs": [
        {
          "indexed": true,
          "internalType": "address",
          "name": "operator",
          "type": "address"
        },
        {
          "indexed": true,
          "internalType": "address",
          "name": "from",
          "type": "address"
        },
        {
          "indexed": true,
          "internalType": "address",
          "name": "to",
          "type": "address"
        },
        {
          "indexed": false,
          "internalType": "uint256",
          "name": "id",
          "type": "uint256"
        },
        {
          "indexed": false,
          "internalType": "uint256",
          "name": "value",
          "type": "uint256"
        }
      ],
      "name": "TransferSingle",
      "type": "event"
    },
    {
      "anonymous": false,
      "inputs": [
        {
          "indexed": false,
          "internalType": "string",
          "name": "value",
          "type": "string"
        },
        {
          "indexed": true,
          "internalType": "uint256",
          "name": "id",
          "type": "uint256"
        }
      ],
      "name": "URI",
      "type": "event"
    },
    {
      "inputs": [
        {
          "internalType": "address",
          "name": "account",
          "type": "address"
        },
        {
          "internalType": "uint256",
          "name": "id",
          "type": "uint256"
        }
      ],
      "name": "balanceOf",
      "outputs": [
        {
          "internalType": "uint256",
          "name": "",
          "type": "uint256"
        }
      ],
      "stateMutability": "view",
      "type": "function"
    },
    {
      "inputs": [
        {
          "internalType": "address[]",
          "name": "accounts",
          "type": "address[]"
        },
        {
          "internalType": "uint256[]",
          "name": "ids",
          "type": "uint256[]"
        }
      ],
      "name": "balanceOfBatch",
      "outputs": [
        {
          "internalType": "uint256[]",
          "name": "",
          "type": "uint256[]"
        }
      ],
      "stateMutability": "view",
      "type": "function"
    },
    {
      "inputs": [
        {
          "internalType": "uint256",
          "name": "id",
          "type": "uint256"
        }
      ],
      "name": "burn",
      "outputs": [],
      "stateMutability": "nonpayable",
      "type": "function"
    },
    {
      "inputs": [
        {
          "internalType": "uint256",
          "name": "",
          "type": "uint256"
        }
      ],
      "name": "idToCID",
      "outputs": [
        {
          "internalType": "string",
          "name": "",
          "type": "string"
        }
      ],
      "stateMutability": "view",
      "type": "function"
    },
    {
      "inputs": [
        {
          "internalType": "address",
          "name": "account",
          "type": "address"
        },
        {
          "internalType": "address",
          "name": "operator",
          "type": "address"
        }
      ],
      "name": "isApprovedForAll",
      "outputs": [
        {
          "internalType": "bool",
          "name": "",
          "type": "bool"
        }
      ],
      "stateMutability": "view",
      "type": "function"
    },
    {
      "inputs": [
        {
          "internalType": "string",
          "name": "cid",
          "type": "string"
        }
      ],
      "name": "mint",
      "outputs": [],
      "stateMutability": "nonpayable",
      "type": "function"
    },
    {
      "inputs": [
        {
          "internalType": "address",
          "name": "account",
          "type": "address"
        },
        {
          "internalType": "uint256",
          "name": "id",
          "type": "uint256"
        }
      ],
      "name": "revoke",
      "outputs": [],
      "stateMutability": "nonpayable",
      "type": "function"
    },
    {
      "inputs": [
        {
          "internalType": "address",
          "name": "from",
          "type": "address"
        },
        {
          "internalType": "address",
          "name": "to",
          "type": "address"
        },
        {
          "internalType": "uint256[]",
          "name": "ids",
          "type": "uint256[]"
        },
        {
          "internalType": "uint256[]",
          "name": "amounts",
          "type": "uint256[]"
        },
        {
          "internalType": "bytes",
          "name": "data",
          "type": "bytes"
        }
      ],
      "name": "safeBatchTransferFrom",
      "outputs": [],
      "stateMutability": "nonpayable",
      "type": "function"
    },
    {
      "inputs": [
        {
          "internalType": "address",
          "name": "from",
          "type": "address"
        },
        {
          "internalType": "address",
          "name": "to",
          "type": "address"
        },
        {
          "internalType": "uint256",
          "name": "id",
          "type": "uint256"
        },
        {
          "internalType": "uint256",
          "name": "amount",
          "type": "uint256"
        },
        {
          "internalType": "bytes",
          "name": "data",
          "type": "bytes"
        }
      ],
      "name": "safeTransferFrom",
      "outputs": [],
      "stateMutability": "nonpayable",
      "type": "function"
    },
    {
      "inputs": [
        {
          "internalType": "uint256",
          "name": "",
          "type": "uint256"
        }
      ],
      "name": "sbtOwner",
      "outputs": [
        {
          "internalType": "address",
          "name": "",
          "type": "address"
        }
      ],
      "stateMutability": "view",
      "type": "function"
    },
    {
      "inputs": [
        {
          "internalType": "address",
          "name": "operator",
          "type": "address"
        },
        {
          "internalType": "bool",
          "name": "approved",
          "type": "bool"
        }
      ],
      "name": "setApprovalForAll",
      "outputs": [],
      "stateMutability": "nonpayable",
      "type": "function"
    },
    {
      "inputs": [
        {
          "internalType": "address",
          "name": "account",
          "type": "address"
        },
        {
          "internalType": "uint256",
          "name": "id",
          "type": "uint256"
        }
      ],
      "name": "share",
      "outputs": [],
      "stateMutability": "nonpayable",
      "type": "function"
    },
    {
      "inputs": [
        {
          "internalType": "bytes4",
          "name": "interfaceId",
          "type": "bytes4"
        }
      ],
      "name": "supportsInterface",
      "outputs": [
        {
          "internalType": "bool",
          "name": "",
          "type": "bool"
        }
      ],
      "stateMutability": "view",
      "type": "function"
    },
    {
      "inputs": [],
      "name": "tokensIssued",
      "outputs": [
        {
          "internalType": "uint256",
          "name": "",
          "type": "uint256"
        }
      ],
      "stateMutability": "view",
      "type": "function"
    },
    {
      "inputs": [
        {
          "internalType": "uint256",
          "name": "",
          "type": "uint256"
        }
      ],
      "name": "uri",
      "outputs": [
        {
          "internalType": "string",
          "name": "",
          "type": "string"
        }
      ],
      "stateMutability": "view",
      "type": "function"
    }
  ],
  "bytecode": "0x60806040523480156200001157600080fd5b506040805160208101909152600081526200002c8162000033565b506200012f565b8051620000489060029060208401906200004c565b5050565b8280546200005a90620000f2565b90600052602060002090601f0160209004810192826200007e5760008555620000c9565b82601f106200009957805160ff1916838001178555620000c9565b82800160010185558215620000c9579182015b82811115620000c9578251825591602001919060010190620000ac565b50620000d7929150620000db565b5090565b5b80821115620000d75760008155600101620000dc565b600181811c908216806200010757607f821691505b602082108114156200012957634e487b7160e01b600052602260045260246000fd5b50919050565b611d1f806200013f6000396000f3fe608060405234801561001057600080fd5b50600436106100f45760003560e01c80637c48bbda11610097578063ded6338b11610066578063ded6338b1461022c578063e985e9c51461023f578063eac449d91461027b578063f242432a1461028e57600080fd5b80637c48bbda146101bd57806399ac0934146101c5578063a22cb46514610206578063d85d3d271461021957600080fd5b80632eb2c2d6116100d35780632eb2c2d61461016257806342966c68146101775780634e1273f41461018a57806368d86f76146101aa57600080fd5b8062fdd58e146100f957806301ffc9a71461011f5780630e89341c14610142575b600080fd5b61010c610107366004611333565b6102a1565b6040519081526020015b60405180910390f35b61013261012d366004611376565b610337565b6040519015158152602001610116565b61015561015036600461139a565b610389565b6040516101169190611400565b610175610170366004611569565b61041d565b005b61017561018536600461139a565b610469565b61019d610198366004611613565b6104ed565b6040516101169190611719565b6101556101b836600461139a565b610617565b61010c6106b1565b6101ee6101d336600461139a565b6004602052600090815260409020546001600160a01b031681565b6040516001600160a01b039091168152602001610116565b61017561021436600461172c565b6106c1565b610175610227366004611768565b6106d0565b61017561023a366004611333565b61077c565b61013261024d3660046117b9565b6001600160a01b03918216600090815260016020908152604080832093909416825291909152205460ff1690565b610175610289366004611333565b61081c565b61017561029c3660046117ec565b61089d565b60006001600160a01b0383166103115760405162461bcd60e51b815260206004820152602a60248201527f455243313135353a2061646472657373207a65726f206973206e6f742061207660448201526930b634b21037bbb732b960b11b60648201526084015b60405180910390fd5b506000908152602081815260408083206001600160a01b03949094168352929052205490565b60006001600160e01b03198216636cdb3d1360e11b148061036857506001600160e01b031982166303a24d0760e21b145b8061038357506301ffc9a760e01b6001600160e01b03198316145b92915050565b60606002805461039890611851565b80601f01602080910402602001604051908101604052809291908181526020018280546103c490611851565b80156104115780601f106103e657610100808354040283529160200191610411565b820191906000526020600020905b8154815290600101906020018083116103f457829003601f168201915b50505050509050919050565b6001600160a01b0385163314806104395750610439853361024d565b6104555760405162461bcd60e51b81526004016103089061188c565b61046285858585856108e2565b5050505050565b61047533826001610acd565b6000818152600460205260409020546001600160a01b03163314156104b157600081815260046020526040902080546001600160a01b03191690555b60408051338152602081018390527fec9ab91322523c899ede7830ec9bfc992b5981cdcc27b91162fb23de5791117b910160405180910390a150565b606081518351146105525760405162461bcd60e51b815260206004820152602960248201527f455243313135353a206163636f756e747320616e6420696473206c656e677468604482015268040dad2e6dac2e8c6d60bb1b6064820152608401610308565b6000835167ffffffffffffffff81111561056e5761056e611413565b604051908082528060200260200182016040528015610597578160200160208202803683370190505b50905060005b845181101561060f576105e28582815181106105bb576105bb6118db565b60200260200101518583815181106105d5576105d56118db565b60200260200101516102a1565b8282815181106105f4576105f46118db565b602090810291909101015261060881611907565b905061059d565b509392505050565b6005602052600090815260409020805461063090611851565b80601f016020809104026020016040519081016040528092919081815260200182805461065c90611851565b80156106a95780601f1061067e576101008083540402835291602001916106a9565b820191906000526020600020905b81548152906001019060200180831161068c57829003601f168201915b505050505081565b60006106bc60035490565b905090565b6106cc338383610c62565b5050565b60006106db60035490565b90506106f93382600160405180602001604052806000815250610d43565b600081815260046020908152604080832080546001600160a01b0319163317905560058252909120835161072f9285019061127e565b507f5a74b0f009590cc3030608d8c3170e14a9d89a876db582f002197c92de0bc22333826001856040516107669493929190611922565b60405180910390a16106cc600380546001019055565b6000818152600460205260409020546001600160a01b031633146107b25760405162461bcd60e51b815260040161030890611959565b6107ce8282600160405180602001604052806000815250610d43565b60008181526005602052604080822090517f5a74b0f009590cc3030608d8c3170e14a9d89a876db582f002197c92de0bc223926108109286928692919061199c565b60405180910390a15050565b6000818152600460205260409020546001600160a01b031633146108525760405162461bcd60e51b815260040161030890611959565b61085e82826001610acd565b604080516001600160a01b0384168152602081018390527fec9ab91322523c899ede7830ec9bfc992b5981cdcc27b91162fb23de5791117b9101610810565b6001600160a01b0385163314806108b957506108b9853361024d565b6108d55760405162461bcd60e51b81526004016103089061188c565b6104628585858585610e5d565b81518351146109445760405162461bcd60e51b815260206004820152602860248201527f455243313135353a2069647320616e6420616d6f756e7473206c656e677468206044820152670dad2e6dac2e8c6d60c31b6064820152608401610308565b6001600160a01b03841661096a5760405162461bcd60e51b815260040161030890611a66565b33610979818787878787610f95565b60005b8451811015610a5f576000858281518110610999576109996118db565b6020026020010151905060008583815181106109b7576109b76118db565b602090810291909101810151600084815280835260408082206001600160a01b038e168352909352919091205490915081811015610a075760405162461bcd60e51b815260040161030890611aab565b6000838152602081815260408083206001600160a01b038e8116855292528083208585039055908b16825281208054849290610a44908490611af5565b9250508190555050505080610a5890611907565b905061097c565b50846001600160a01b0316866001600160a01b0316826001600160a01b03167f4a39dc06d4c0dbc64b70af90fd698a233a518aa5d07e595d983b8c0526c8f7fb8787604051610aaf929190611b0d565b60405180910390a4610ac5818787878787610ffe565b505050505050565b6001600160a01b038316610b2f5760405162461bcd60e51b815260206004820152602360248201527f455243313135353a206275726e2066726f6d20746865207a65726f206164647260448201526265737360e81b6064820152608401610308565b336000610b3b84611169565b90506000610b4884611169565b9050610b6883876000858560405180602001604052806000815250610f95565b6000858152602081815260408083206001600160a01b038a16845290915290205484811015610be55760405162461bcd60e51b8152602060048201526024808201527f455243313135353a206275726e20616d6f756e7420657863656564732062616c604482015263616e636560e01b6064820152608401610308565b6000868152602081815260408083206001600160a01b038b81168086529184528285208a8703905582518b81529384018a90529092908816917fc3d58168c5ae7397731d063d5bbf3d657854427343f4c083240f7aacaa2d0f62910160405180910390a46040805160208101909152600090525b50505050505050565b816001600160a01b0316836001600160a01b03161415610cd65760405162461bcd60e51b815260206004820152602960248201527f455243313135353a2073657474696e6720617070726f76616c20737461747573604482015268103337b91039b2b63360b91b6064820152608401610308565b6001600160a01b03838116600081815260016020908152604080832094871680845294825291829020805460ff191686151590811790915591519182527f17307eab39ab6107e8899845ad3d59bd9653f200f220920489ca2b5937696c31910160405180910390a3505050565b6001600160a01b038416610da35760405162461bcd60e51b815260206004820152602160248201527f455243313135353a206d696e7420746f20746865207a65726f206164647265736044820152607360f81b6064820152608401610308565b336000610daf85611169565b90506000610dbc85611169565b9050610dcd83600089858589610f95565b6000868152602081815260408083206001600160a01b038b16845290915281208054879290610dfd908490611af5565b909155505060408051878152602081018790526001600160a01b03808a1692600092918716917fc3d58168c5ae7397731d063d5bbf3d657854427343f4c083240f7aacaa2d0f62910160405180910390a4610c59836000898989896111b4565b6001600160a01b038416610e835760405162461bcd60e51b815260040161030890611a66565b336000610e8f85611169565b90506000610e9c85611169565b9050610eac838989858589610f95565b6000868152602081815260408083206001600160a01b038c16845290915290205485811015610eed5760405162461bcd60e51b815260040161030890611aab565b6000878152602081815260408083206001600160a01b038d8116855292528083208985039055908a16825281208054889290610f2a908490611af5565b909155505060408051888152602081018890526001600160a01b03808b16928c821692918816917fc3d58168c5ae7397731d063d5bbf3d657854427343f4c083240f7aacaa2d0f62910160405180910390a4610f8a848a8a8a8a8a6111b4565b505050505050505050565b6001600160a01b0385161580610fb257506001600160a01b038416155b610ac55760405162461bcd60e51b815260206004820152601d60248201527f4e6f7420616c6c6f77656420746f207472616e7366657220746f6b656e0000006044820152606401610308565b6001600160a01b0384163b15610ac55760405163bc197c8160e01b81526001600160a01b0385169063bc197c81906110429089908990889088908890600401611b3b565b602060405180830381600087803b15801561105c57600080fd5b505af192505050801561108c575060408051601f3d908101601f1916820190925261108991810190611b99565b60015b61113957611098611bb6565b806308c379a014156110d257506110ad611bd2565b806110b857506110d4565b8060405162461bcd60e51b81526004016103089190611400565b505b60405162461bcd60e51b815260206004820152603460248201527f455243313135353a207472616e7366657220746f206e6f6e20455243313135356044820152732932b1b2b4bb32b91034b6b83632b6b2b73a32b960611b6064820152608401610308565b6001600160e01b0319811663bc197c8160e01b14610c595760405162461bcd60e51b815260040161030890611c5c565b604080516001808252818301909252606091600091906020808301908036833701905050905082816000815181106111a3576111a36118db565b602090810291909101015292915050565b6001600160a01b0384163b15610ac55760405163f23a6e6160e01b81526001600160a01b0385169063f23a6e61906111f89089908990889088908890600401611ca4565b602060405180830381600087803b15801561121257600080fd5b505af1925050508015611242575060408051601f3d908101601f1916820190925261123f91810190611b99565b60015b61124e57611098611bb6565b6001600160e01b0319811663f23a6e6160e01b14610c595760405162461bcd60e51b815260040161030890611c5c565b82805461128a90611851565b90600052602060002090601f0160209004810192826112ac57600085556112f2565b82601f106112c557805160ff19168380011785556112f2565b828001600101855582156112f2579182015b828111156112f25782518255916020019190600101906112d7565b506112fe929150611302565b5090565b5b808211156112fe5760008155600101611303565b80356001600160a01b038116811461132e57600080fd5b919050565b6000806040838503121561134657600080fd5b61134f83611317565b946020939093013593505050565b6001600160e01b03198116811461137357600080fd5b50565b60006020828403121561138857600080fd5b81356113938161135d565b9392505050565b6000602082840312156113ac57600080fd5b5035919050565b6000815180845260005b818110156113d9576020818501810151868301820152016113bd565b818111156113eb576000602083870101525b50601f01601f19169290920160200192915050565b60208152600061139360208301846113b3565b634e487b7160e01b600052604160045260246000fd5b601f8201601f1916810167ffffffffffffffff8111828210171561144f5761144f611413565b6040525050565b600067ffffffffffffffff82111561147057611470611413565b5060051b60200190565b600082601f83011261148b57600080fd5b8135602061149882611456565b6040516114a58282611429565b83815260059390931b85018201928281019150868411156114c557600080fd5b8286015b848110156114e057803583529183019183016114c9565b509695505050505050565b600067ffffffffffffffff83111561150557611505611413565b60405161151c601f8501601f191660200182611429565b80915083815284848401111561153157600080fd5b83836020830137600060208583010152509392505050565b600082601f83011261155a57600080fd5b611393838335602085016114eb565b600080600080600060a0868803121561158157600080fd5b61158a86611317565b945061159860208701611317565b9350604086013567ffffffffffffffff808211156115b557600080fd5b6115c189838a0161147a565b945060608801359150808211156115d757600080fd5b6115e389838a0161147a565b935060808801359150808211156115f957600080fd5b5061160688828901611549565b9150509295509295909350565b6000806040838503121561162657600080fd5b823567ffffffffffffffff8082111561163e57600080fd5b818501915085601f83011261165257600080fd5b8135602061165f82611456565b60405161166c8282611429565b83815260059390931b850182019282810191508984111561168c57600080fd5b948201945b838610156116b1576116a286611317565b82529482019490820190611691565b965050860135925050808211156116c757600080fd5b506116d48582860161147a565b9150509250929050565b600081518084526020808501945080840160005b8381101561170e578151875295820195908201906001016116f2565b509495945050505050565b60208152600061139360208301846116de565b6000806040838503121561173f57600080fd5b61174883611317565b91506020830135801515811461175d57600080fd5b809150509250929050565b60006020828403121561177a57600080fd5b813567ffffffffffffffff81111561179157600080fd5b8201601f810184136117a257600080fd5b6117b1848235602084016114eb565b949350505050565b600080604083850312156117cc57600080fd5b6117d583611317565b91506117e360208401611317565b90509250929050565b600080600080600060a0868803121561180457600080fd5b61180d86611317565b945061181b60208701611317565b93506040860135925060608601359150608086013567ffffffffffffffff81111561184557600080fd5b61160688828901611549565b600181811c9082168061186557607f821691505b6020821081141561188657634e487b7160e01b600052602260045260246000fd5b50919050565b6020808252602f908201527f455243313135353a2063616c6c6572206973206e6f7420746f6b656e206f776e60408201526e195c881b9bdc88185c1c1c9bdd9959608a1b606082015260800190565b634e487b7160e01b600052603260045260246000fd5b634e487b7160e01b600052601160045260246000fd5b600060001982141561191b5761191b6118f1565b5060010190565b60018060a01b038516815283602082015282604082015260806060820152600061194f60808301846113b3565b9695505050505050565b60208082526023908201527f596f7520617265206e6f7420746865206f776e6572206f66207468697320746f60408201526235b2b760e91b606082015260800190565b6001600160a01b0385168152602080820185905260408201849052608060608301528254600091908290600181811c90828116806119db57607f831692505b8583108114156119f957634e487b7160e01b85526022600452602485fd5b6080880183905260a08801818015611a185760018114611a2957611a54565b60ff19861682528782019650611a54565b60008b81526020902060005b86811015611a4e57815484820152908501908901611a35565b83019750505b50949c9b505050505050505050505050565b60208082526025908201527f455243313135353a207472616e7366657220746f20746865207a65726f206164604082015264647265737360d81b606082015260800190565b6020808252602a908201527f455243313135353a20696e73756666696369656e742062616c616e636520666f60408201526939103a3930b739b332b960b11b606082015260800190565b60008219821115611b0857611b086118f1565b500190565b604081526000611b2060408301856116de565b8281036020840152611b3281856116de565b95945050505050565b6001600160a01b0386811682528516602082015260a060408201819052600090611b67908301866116de565b8281036060840152611b7981866116de565b90508281036080840152611b8d81856113b3565b98975050505050505050565b600060208284031215611bab57600080fd5b81516113938161135d565b600060033d1115611bcf5760046000803e5060005160e01c5b90565b600060443d1015611be05790565b6040516003193d81016004833e81513d67ffffffffffffffff8160248401118184111715611c1057505050505090565b8285019150815181811115611c285750505050505090565b843d8701016020828501011115611c425750505050505090565b611c5160208286010187611429565b509095945050505050565b60208082526028908201527f455243313135353a204552433131353552656365697665722072656a656374656040820152676420746f6b656e7360c01b606082015260800190565b6001600160a01b03868116825285166020820152604081018490526060810183905260a060808201819052600090611cde908301846113b3565b97965050505050505056fea26469706673582212209906eebbe3be9eb438cf4edf136c39c0f7000a68617fb82942e5299ae4b6fa5b64736f6c63430008090033",
  "linkReferences": {},
  "deployedLinkReferences": {}
}