{
  "_format": "hh-sol-artifact-1",
  "contractName": "PipeleSBT",
  "sourceName": "contracts/PipeleSBT.sol",
  "abi": [
    {
      "inputs": [
        {
          "internalType": "string",
          "name": "pipeleUri",
          "type": "string"
        }
      ],
      "stateMutability": "nonpayable",
      "type": "constructor"
    },
    {
      "anonymous": false,
      "inputs": [
        {
          "indexed": true,
          "internalType": "address",
          "name": "account",
          "type": "address"
        },
        {
          "indexed": true,
          "internalType": "address",
          "name": "operator",
          "type": "address"
        },
        {
          "indexed": false,
          "internalType": "bool",
          "name": "approved",
          "type": "bool"
        }
      ],
      "name": "ApprovalForAll",
      "type": "event"
    },
    {
      "anonymous": false,
      "inputs": [
        {
          "indexed": false,
          "internalType": "uint256",
          "name": "tokenId",
          "type": "uint256"
        },
        {
          "indexed": false,
          "internalType": "string",
          "name": "fileId",
          "type": "string"
        }
      ],
      "name": "AttachData",
      "type": "event"
    },
    {
      "anonymous": false,
      "inputs": [
        {
          "indexed": false,
          "internalType": "address",
          "name": "to",
          "type": "address"
        },
        {
          "indexed": false,
          "internalType": "uint256",
          "name": "tokenId",
          "type": "uint256"
        },
        {
          "indexed": false,
          "internalType": "uint256",
          "name": "ownershipType",
          "type": "uint256"
        }
      ],
      "name": "Attest",
      "type": "event"
    },
    {
      "anonymous": false,
      "inputs": [
        {
          "indexed": false,
          "internalType": "address",
          "name": "to",
          "type": "address"
        },
        {
          "indexed": false,
          "internalType": "uint256",
          "name": "tokenId",
          "type": "uint256"
        }
      ],
      "name": "Revoke",
      "type": "event"
    },
    {
      "anonymous": false,
      "inputs": [
        {
          "indexed": true,
          "internalType": "address",
          "name": "operator",
          "type": "address"
        },
        {
          "indexed": true,
          "internalType": "address",
          "name": "from",
          "type": "address"
        },
        {
          "indexed": true,
          "internalType": "address",
          "name": "to",
          "type": "address"
        },
        {
          "indexed": false,
          "internalType": "uint256[]",
          "name": "ids",
          "type": "uint256[]"
        },
        {
          "indexed": false,
          "internalType": "uint256[]",
          "name": "values",
          "type": "uint256[]"
        }
      ],
      "name": "TransferBatch",
      "type": "event"
    },
    {
      "anonymous": false,
      "inputs": [
        {
          "indexed": true,
          "internalType": "address",
          "name": "operator",
          "type": "address"
        },
        {
          "indexed": true,
          "internalType": "address",
          "name": "from",
          "type": "address"
        },
        {
          "indexed": true,
          "internalType": "address",
          "name": "to",
          "type": "address"
        },
        {
          "indexed": false,
          "internalType": "uint256",
          "name": "id",
          "type": "uint256"
        },
        {
          "indexed": false,
          "internalType": "uint256",
          "name": "value",
          "type": "uint256"
        }
      ],
      "name": "TransferSingle",
      "type": "event"
    },
    {
      "anonymous": false,
      "inputs": [
        {
          "indexed": false,
          "internalType": "string",
          "name": "value",
          "type": "string"
        },
        {
          "indexed": true,
          "internalType": "uint256",
          "name": "id",
          "type": "uint256"
        }
      ],
      "name": "URI",
      "type": "event"
    },
    {
      "inputs": [
        {
          "internalType": "uint256",
          "name": "tokenId",
          "type": "uint256"
        },
        {
          "internalType": "string",
          "name": "fileId",
          "type": "string"
        }
      ],
      "name": "attachMetaData",
      "outputs": [],
      "stateMutability": "nonpayable",
      "type": "function"
    },
    {
      "inputs": [
        {
          "internalType": "address",
          "name": "account",
          "type": "address"
        },
        {
          "internalType": "uint256",
          "name": "id",
          "type": "uint256"
        }
      ],
      "name": "balanceOf",
      "outputs": [
        {
          "internalType": "uint256",
          "name": "",
          "type": "uint256"
        }
      ],
      "stateMutability": "view",
      "type": "function"
    },
    {
      "inputs": [
        {
          "internalType": "address[]",
          "name": "accounts",
          "type": "address[]"
        },
        {
          "internalType": "uint256[]",
          "name": "ids",
          "type": "uint256[]"
        }
      ],
      "name": "balanceOfBatch",
      "outputs": [
        {
          "internalType": "uint256[]",
          "name": "",
          "type": "uint256[]"
        }
      ],
      "stateMutability": "view",
      "type": "function"
    },
    {
      "inputs": [
        {
          "internalType": "uint256",
          "name": "id",
          "type": "uint256"
        }
      ],
      "name": "burn",
      "outputs": [],
      "stateMutability": "nonpayable",
      "type": "function"
    },
    {
      "inputs": [
        {
          "internalType": "string",
          "name": "fileId",
          "type": "string"
        }
      ],
      "name": "getIdofCid",
      "outputs": [
        {
          "internalType": "uint256",
          "name": "",
          "type": "uint256"
        }
      ],
      "stateMutability": "view",
      "type": "function"
    },
    {
      "inputs": [
        {
          "internalType": "uint256",
          "name": "",
          "type": "uint256"
        }
      ],
      "name": "idtoinfo",
      "outputs": [
        {
          "internalType": "address",
          "name": "owner",
          "type": "address"
        },
        {
          "internalType": "string",
          "name": "fileId",
          "type": "string"
        }
      ],
      "stateMutability": "view",
      "type": "function"
    },
    {
      "inputs": [
        {
          "internalType": "address",
          "name": "account",
          "type": "address"
        },
        {
          "internalType": "address",
          "name": "operator",
          "type": "address"
        }
      ],
      "name": "isApprovedForAll",
      "outputs": [
        {
          "internalType": "bool",
          "name": "",
          "type": "bool"
        }
      ],
      "stateMutability": "view",
      "type": "function"
    },
    {
      "inputs": [],
      "name": "mint",
      "outputs": [],
      "stateMutability": "nonpayable",
      "type": "function"
    },
    {
      "inputs": [
        {
          "internalType": "address",
          "name": "account",
          "type": "address"
        },
        {
          "internalType": "uint256",
          "name": "id",
          "type": "uint256"
        }
      ],
      "name": "revoke",
      "outputs": [],
      "stateMutability": "nonpayable",
      "type": "function"
    },
    {
      "inputs": [
        {
          "internalType": "address",
          "name": "from",
          "type": "address"
        },
        {
          "internalType": "address",
          "name": "to",
          "type": "address"
        },
        {
          "internalType": "uint256[]",
          "name": "ids",
          "type": "uint256[]"
        },
        {
          "internalType": "uint256[]",
          "name": "amounts",
          "type": "uint256[]"
        },
        {
          "internalType": "bytes",
          "name": "data",
          "type": "bytes"
        }
      ],
      "name": "safeBatchTransferFrom",
      "outputs": [],
      "stateMutability": "nonpayable",
      "type": "function"
    },
    {
      "inputs": [
        {
          "internalType": "address",
          "name": "from",
          "type": "address"
        },
        {
          "internalType": "address",
          "name": "to",
          "type": "address"
        },
        {
          "internalType": "uint256",
          "name": "id",
          "type": "uint256"
        },
        {
          "internalType": "uint256",
          "name": "amount",
          "type": "uint256"
        },
        {
          "internalType": "bytes",
          "name": "data",
          "type": "bytes"
        }
      ],
      "name": "safeTransferFrom",
      "outputs": [],
      "stateMutability": "nonpayable",
      "type": "function"
    },
    {
      "inputs": [
        {
          "internalType": "address",
          "name": "operator",
          "type": "address"
        },
        {
          "internalType": "bool",
          "name": "approved",
          "type": "bool"
        }
      ],
      "name": "setApprovalForAll",
      "outputs": [],
      "stateMutability": "nonpayable",
      "type": "function"
    },
    {
      "inputs": [
        {
          "internalType": "address",
          "name": "account",
          "type": "address"
        },
        {
          "internalType": "uint256",
          "name": "id",
          "type": "uint256"
        }
      ],
      "name": "share",
      "outputs": [],
      "stateMutability": "nonpayable",
      "type": "function"
    },
    {
      "inputs": [
        {
          "internalType": "bytes4",
          "name": "interfaceId",
          "type": "bytes4"
        }
      ],
      "name": "supportsInterface",
      "outputs": [
        {
          "internalType": "bool",
          "name": "",
          "type": "bool"
        }
      ],
      "stateMutability": "view",
      "type": "function"
    },
    {
      "inputs": [],
      "name": "tokenIssued",
      "outputs": [
        {
          "internalType": "uint256",
          "name": "",
          "type": "uint256"
        }
      ],
      "stateMutability": "view",
      "type": "function"
    },
    {
      "inputs": [
        {
          "internalType": "uint256",
          "name": "",
          "type": "uint256"
        }
      ],
      "name": "uri",
      "outputs": [
        {
          "internalType": "string",
          "name": "",
          "type": "string"
        }
      ],
      "stateMutability": "view",
      "type": "function"
    }
  ],
  "bytecode": "0x60806040523480156200001157600080fd5b50604051620021283803806200212883398101604081905262000034916200013d565b8062000040816200005f565b506200005860036200007860201b62000a051760201c565b5062000256565b80516200007490600290602084019062000081565b5050565b80546001019055565b8280546200008f9062000219565b90600052602060002090601f016020900481019282620000b35760008555620000fe565b82601f10620000ce57805160ff1916838001178555620000fe565b82800160010185558215620000fe579182015b82811115620000fe578251825591602001919060010190620000e1565b506200010c92915062000110565b5090565b5b808211156200010c576000815560010162000111565b634e487b7160e01b600052604160045260246000fd5b600060208083850312156200015157600080fd5b82516001600160401b03808211156200016957600080fd5b818501915085601f8301126200017e57600080fd5b81518181111562000193576200019362000127565b604051601f8201601f19908116603f01168101908382118183101715620001be57620001be62000127565b816040528281528886848701011115620001d757600080fd5b600093505b82841015620001fb5784840186015181850187015292850192620001dc565b828411156200020d5760008684830101525b98975050505050505050565b600181811c908216806200022e57607f821691505b602082108114156200025057634e487b7160e01b600052602260045260246000fd5b50919050565b611ec280620002666000396000f3fe608060405234801561001057600080fd5b50600436106100ff5760003560e01c8063847bf5f111610097578063e985e9c511610066578063e985e9c51461021f578063eac449d91461025b578063ef55a0e11461026e578063f242432a1461028157600080fd5b8063847bf5f1146101c55780639e98e3a4146101e6578063a22cb465146101f9578063ded6338b1461020c57600080fd5b80632eb2c2d6116100d35780632eb2c2d61461017757806342966c681461018a5780634e1273f41461019d57806351a11e94146101bd57600080fd5b8062fdd58e1461010457806301ffc9a71461012a5780630e89341c1461014d5780631249c58b1461016d575b600080fd5b6101176101123660046114a0565b610294565b6040519081526020015b60405180910390f35b61013d6101383660046114e0565b61032a565b6040519015158152602001610121565b61016061015b366004611504565b61037c565b6040516101219190611579565b610175610410565b005b6101756101853660046116d8565b6104ad565b610175610198366004611504565b6104f9565b6101b06101ab366004611782565b610587565b6040516101219190611888565b6101176106b1565b6101d86101d3366004611504565b6106cd565b60405161012192919061189b565b6101756101f43660046118c7565b61077c565b610175610207366004611904565b610802565b61017561021a3660046114a0565b610811565b61013d61022d366004611940565b6001600160a01b03918216600090815260016020908152604080832093909416825291909152205460ff1690565b6101756102693660046114a0565b6108ad565b61011761027c366004611973565b61092e565b61017561028f3660046119a8565b6109c0565b60006001600160a01b0383166103045760405162461bcd60e51b815260206004820152602a60248201527f455243313135353a2061646472657373207a65726f206973206e6f742061207660448201526930b634b21037bbb732b960b11b60648201526084015b60405180910390fd5b506000908152602081815260408083206001600160a01b03949094168352929052205490565b60006001600160e01b03198216636cdb3d1360e11b148061035b57506001600160e01b031982166303a24d0760e21b145b8061037657506301ffc9a760e01b6001600160e01b03198316145b92915050565b60606002805461038b90611a0d565b80601f01602080910402602001604051908101604052809291908181526020018280546103b790611a0d565b80156104045780601f106103d957610100808354040283529160200191610404565b820191906000526020600020905b8154815290600101906020018083116103e757829003601f168201915b50505050509050919050565b600061041b60035490565b90506104393382600160405180602001604052806000815250610a0e565b600081815260046020526040902080546001600160a01b03191633179055610465600380546001019055565b60408051338152602081018390526001918101919091527f94b63a902576666a816be3847a3e9f7eca989b21cbd1a94bdb1d337c4ee24d09906060015b60405180910390a150565b6001600160a01b0385163314806104c957506104c9853361022d565b6104e55760405162461bcd60e51b81526004016102fb90611a48565b6104f28585858585610b31565b5050505050565b61050533826001610d1c565b6000818152600460205260409020546001600160a01b031633141561055157600081815260046020526040812080546001600160a01b03191681559061054e60018301826113ae565b50505b60408051338152602081018390527fec9ab91322523c899ede7830ec9bfc992b5981cdcc27b91162fb23de5791117b91016104a2565b606081518351146105ec5760405162461bcd60e51b815260206004820152602960248201527f455243313135353a206163636f756e747320616e6420696473206c656e677468604482015268040dad2e6dac2e8c6d60bb1b60648201526084016102fb565b6000835167ffffffffffffffff8111156106085761060861158c565b604051908082528060200260200182016040528015610631578160200160208202803683370190505b50905060005b84518110156106a95761067c85828151811061065557610655611a97565b602002602001015185838151811061066f5761066f611a97565b6020026020010151610294565b82828151811061068e5761068e611a97565b60209081029190910101526106a281611ac3565b9050610637565b509392505050565b600060016106be60035490565b6106c89190611ade565b905090565b600460205260009081526040902080546001820180546001600160a01b0390921692916106f990611a0d565b80601f016020809104026020016040519081016040528092919081815260200182805461072590611a0d565b80156107725780601f1061074757610100808354040283529160200191610772565b820191906000526020600020905b81548152906001019060200180831161075557829003601f168201915b5050505050905082565b6000828152600460205260409020546001600160a01b0316331461079f57600080fd5b600082815260046020908152604090912082516107c4926001909201918401906113eb565b507f31186fe38c1f3f6e07b07973f9d3f4e3f1ae1b723e393fa34fcb73d686dcf73582826040516107f6929190611af5565b60405180910390a15050565b61080d338383610eac565b5050565b6000818152600460205260409020546001600160a01b031633146108475760405162461bcd60e51b81526004016102fb90611b0e565b6108638282600160405180602001604052806000815250610a0e565b604080516001600160a01b0384168152602081018390526000918101919091527f94b63a902576666a816be3847a3e9f7eca989b21cbd1a94bdb1d337c4ee24d09906060016107f6565b6000818152600460205260409020546001600160a01b031633146108e35760405162461bcd60e51b81526004016102fb90611b0e565b6108ef82826001610d1c565b604080516001600160a01b0384168152602081018390527fec9ab91322523c899ede7830ec9bfc992b5981cdcc27b91162fb23de5791117b91016107f6565b600060015b6003548110156109b7578260405160200161094e9190611b51565b60408051601f198184030181528282528051602091820120600085815260048352929092209192610983926001019101611b6d565b6040516020818303038152906040528051906020012014156109a55792915050565b806109af81611ac3565b915050610933565b50600092915050565b6001600160a01b0385163314806109dc57506109dc853361022d565b6109f85760405162461bcd60e51b81526004016102fb90611a48565b6104f28585858585610f8d565b80546001019055565b6001600160a01b038416610a6e5760405162461bcd60e51b815260206004820152602160248201527f455243313135353a206d696e7420746f20746865207a65726f206164647265736044820152607360f81b60648201526084016102fb565b336000610a7a856110c5565b90506000610a87856110c5565b9050610a9883600089858589611110565b6000868152602081815260408083206001600160a01b038b16845290915281208054879290610ac8908490611c09565b909155505060408051878152602081018790526001600160a01b03808a1692600092918716917fc3d58168c5ae7397731d063d5bbf3d657854427343f4c083240f7aacaa2d0f62910160405180910390a4610b2883600089898989611179565b50505050505050565b8151835114610b935760405162461bcd60e51b815260206004820152602860248201527f455243313135353a2069647320616e6420616d6f756e7473206c656e677468206044820152670dad2e6dac2e8c6d60c31b60648201526084016102fb565b6001600160a01b038416610bb95760405162461bcd60e51b81526004016102fb90611c21565b33610bc8818787878787611110565b60005b8451811015610cae576000858281518110610be857610be8611a97565b602002602001015190506000858381518110610c0657610c06611a97565b602090810291909101810151600084815280835260408082206001600160a01b038e168352909352919091205490915081811015610c565760405162461bcd60e51b81526004016102fb90611c66565b6000838152602081815260408083206001600160a01b038e8116855292528083208585039055908b16825281208054849290610c93908490611c09565b9250508190555050505080610ca790611ac3565b9050610bcb565b50846001600160a01b0316866001600160a01b0316826001600160a01b03167f4a39dc06d4c0dbc64b70af90fd698a233a518aa5d07e595d983b8c0526c8f7fb8787604051610cfe929190611cb0565b60405180910390a4610d148187878787876112e4565b505050505050565b6001600160a01b038316610d7e5760405162461bcd60e51b815260206004820152602360248201527f455243313135353a206275726e2066726f6d20746865207a65726f206164647260448201526265737360e81b60648201526084016102fb565b336000610d8a846110c5565b90506000610d97846110c5565b9050610db783876000858560405180602001604052806000815250611110565b6000858152602081815260408083206001600160a01b038a16845290915290205484811015610e345760405162461bcd60e51b8152602060048201526024808201527f455243313135353a206275726e20616d6f756e7420657863656564732062616c604482015263616e636560e01b60648201526084016102fb565b6000868152602081815260408083206001600160a01b038b81168086529184528285208a8703905582518b81529384018a90529092908816917fc3d58168c5ae7397731d063d5bbf3d657854427343f4c083240f7aacaa2d0f62910160405180910390a4604080516020810190915260009052610b28565b816001600160a01b0316836001600160a01b03161415610f205760405162461bcd60e51b815260206004820152602960248201527f455243313135353a2073657474696e6720617070726f76616c20737461747573604482015268103337b91039b2b63360b91b60648201526084016102fb565b6001600160a01b03838116600081815260016020908152604080832094871680845294825291829020805460ff191686151590811790915591519182527f17307eab39ab6107e8899845ad3d59bd9653f200f220920489ca2b5937696c31910160405180910390a3505050565b6001600160a01b038416610fb35760405162461bcd60e51b81526004016102fb90611c21565b336000610fbf856110c5565b90506000610fcc856110c5565b9050610fdc838989858589611110565b6000868152602081815260408083206001600160a01b038c1684529091529020548581101561101d5760405162461bcd60e51b81526004016102fb90611c66565b6000878152602081815260408083206001600160a01b038d8116855292528083208985039055908a1682528120805488929061105a908490611c09565b909155505060408051888152602081018890526001600160a01b03808b16928c821692918816917fc3d58168c5ae7397731d063d5bbf3d657854427343f4c083240f7aacaa2d0f62910160405180910390a46110ba848a8a8a8a8a611179565b505050505050505050565b604080516001808252818301909252606091600091906020808301908036833701905050905082816000815181106110ff576110ff611a97565b602090810291909101015292915050565b6001600160a01b038516158061112d57506001600160a01b038416155b610d145760405162461bcd60e51b815260206004820152601d60248201527f4e6f7420616c6c6f77656420746f207472616e7366657220746f6b656e00000060448201526064016102fb565b6001600160a01b0384163b15610d145760405163f23a6e6160e01b81526001600160a01b0385169063f23a6e61906111bd9089908990889088908890600401611cde565b602060405180830381600087803b1580156111d757600080fd5b505af1925050508015611207575060408051601f3d908101601f1916820190925261120491810190611d23565b60015b6112b457611213611d40565b806308c379a0141561124d5750611228611d5c565b80611233575061124f565b8060405162461bcd60e51b81526004016102fb9190611579565b505b60405162461bcd60e51b815260206004820152603460248201527f455243313135353a207472616e7366657220746f206e6f6e20455243313135356044820152732932b1b2b4bb32b91034b6b83632b6b2b73a32b960611b60648201526084016102fb565b6001600160e01b0319811663f23a6e6160e01b14610b285760405162461bcd60e51b81526004016102fb90611de6565b6001600160a01b0384163b15610d145760405163bc197c8160e01b81526001600160a01b0385169063bc197c81906113289089908990889088908890600401611e2e565b602060405180830381600087803b15801561134257600080fd5b505af1925050508015611372575060408051601f3d908101601f1916820190925261136f91810190611d23565b60015b61137e57611213611d40565b6001600160e01b0319811663bc197c8160e01b14610b285760405162461bcd60e51b81526004016102fb90611de6565b5080546113ba90611a0d565b6000825580601f106113ca575050565b601f0160209004906000526020600020908101906113e8919061146f565b50565b8280546113f790611a0d565b90600052602060002090601f016020900481019282611419576000855561145f565b82601f1061143257805160ff191683800117855561145f565b8280016001018555821561145f579182015b8281111561145f578251825591602001919060010190611444565b5061146b92915061146f565b5090565b5b8082111561146b5760008155600101611470565b80356001600160a01b038116811461149b57600080fd5b919050565b600080604083850312156114b357600080fd5b6114bc83611484565b946020939093013593505050565b6001600160e01b0319811681146113e857600080fd5b6000602082840312156114f257600080fd5b81356114fd816114ca565b9392505050565b60006020828403121561151657600080fd5b5035919050565b60005b83811015611538578181015183820152602001611520565b83811115611547576000848401525b50505050565b6000815180845261156581602086016020860161151d565b601f01601f19169290920160200192915050565b6020815260006114fd602083018461154d565b634e487b7160e01b600052604160045260246000fd5b601f8201601f1916810167ffffffffffffffff811182821017156115c8576115c861158c565b6040525050565b600067ffffffffffffffff8211156115e9576115e961158c565b5060051b60200190565b600082601f83011261160457600080fd5b81356020611611826115cf565b60405161161e82826115a2565b83815260059390931b850182019282810191508684111561163e57600080fd5b8286015b848110156116595780358352918301918301611642565b509695505050505050565b600082601f83011261167557600080fd5b813567ffffffffffffffff81111561168f5761168f61158c565b6040516116a6601f8301601f1916602001826115a2565b8181528460208386010111156116bb57600080fd5b816020850160208301376000918101602001919091529392505050565b600080600080600060a086880312156116f057600080fd5b6116f986611484565b945061170760208701611484565b9350604086013567ffffffffffffffff8082111561172457600080fd5b61173089838a016115f3565b9450606088013591508082111561174657600080fd5b61175289838a016115f3565b9350608088013591508082111561176857600080fd5b5061177588828901611664565b9150509295509295909350565b6000806040838503121561179557600080fd5b823567ffffffffffffffff808211156117ad57600080fd5b818501915085601f8301126117c157600080fd5b813560206117ce826115cf565b6040516117db82826115a2565b83815260059390931b85018201928281019150898411156117fb57600080fd5b948201945b838610156118205761181186611484565b82529482019490820190611800565b9650508601359250508082111561183657600080fd5b50611843858286016115f3565b9150509250929050565b600081518084526020808501945080840160005b8381101561187d57815187529582019590820190600101611861565b509495945050505050565b6020815260006114fd602083018461184d565b6001600160a01b03831681526040602082018190526000906118bf9083018461154d565b949350505050565b600080604083850312156118da57600080fd5b82359150602083013567ffffffffffffffff8111156118f857600080fd5b61184385828601611664565b6000806040838503121561191757600080fd5b61192083611484565b91506020830135801515811461193557600080fd5b809150509250929050565b6000806040838503121561195357600080fd5b61195c83611484565b915061196a60208401611484565b90509250929050565b60006020828403121561198557600080fd5b813567ffffffffffffffff81111561199c57600080fd5b6118bf84828501611664565b600080600080600060a086880312156119c057600080fd5b6119c986611484565b94506119d760208701611484565b93506040860135925060608601359150608086013567ffffffffffffffff811115611a0157600080fd5b61177588828901611664565b600181811c90821680611a2157607f821691505b60208210811415611a4257634e487b7160e01b600052602260045260246000fd5b50919050565b6020808252602f908201527f455243313135353a2063616c6c6572206973206e6f7420746f6b656e206f776e60408201526e195c881b9bdc88185c1c1c9bdd9959608a1b606082015260800190565b634e487b7160e01b600052603260045260246000fd5b634e487b7160e01b600052601160045260246000fd5b6000600019821415611ad757611ad7611aad565b5060010190565b600082821015611af057611af0611aad565b500390565b8281526040602082015260006118bf604083018461154d565b60208082526023908201527f596f7520617265206e6f7420746865206f776e6572206f66207468697320746f60408201526235b2b760e91b606082015260800190565b60008251611b6381846020870161151d565b9190910192915050565b600080835481600182811c915080831680611b8957607f831692505b6020808410821415611ba957634e487b7160e01b86526022600452602486fd5b818015611bbd5760018114611bce57611bfb565b60ff19861689528489019650611bfb565b60008a81526020902060005b86811015611bf35781548b820152908501908301611bda565b505084890196505b509498975050505050505050565b60008219821115611c1c57611c1c611aad565b500190565b60208082526025908201527f455243313135353a207472616e7366657220746f20746865207a65726f206164604082015264647265737360d81b606082015260800190565b6020808252602a908201527f455243313135353a20696e73756666696369656e742062616c616e636520666f60408201526939103a3930b739b332b960b11b606082015260800190565b604081526000611cc3604083018561184d565b8281036020840152611cd5818561184d565b95945050505050565b6001600160a01b03868116825285166020820152604081018490526060810183905260a060808201819052600090611d189083018461154d565b979650505050505050565b600060208284031215611d3557600080fd5b81516114fd816114ca565b600060033d1115611d595760046000803e5060005160e01c5b90565b600060443d1015611d6a5790565b6040516003193d81016004833e81513d67ffffffffffffffff8160248401118184111715611d9a57505050505090565b8285019150815181811115611db25750505050505090565b843d8701016020828501011115611dcc5750505050505090565b611ddb602082860101876115a2565b509095945050505050565b60208082526028908201527f455243313135353a204552433131353552656365697665722072656a656374656040820152676420746f6b656e7360c01b606082015260800190565b6001600160a01b0386811682528516602082015260a060408201819052600090611e5a9083018661184d565b8281036060840152611e6c818661184d565b90508281036080840152611e80818561154d565b9897505050505050505056fea2646970667358221220be0538e0964e719bba2ea6e84fb06e7901a122ae068753a8d8dca7b9e563f4c264736f6c63430008090033",
  "linkReferences": {},
  "deployedLinkReferences": {}
}